S0110000506C616E74696C6C612E7372656372
S11300000C944E000C9460000C9460000C946000FE
S11300100C9460000C9460000C9460000C946000DC
S11300200C9460000C9460000C9460000C946000CC
S11300300C9460000C9460000C9460000C946000BC
S11300400C94B2000C9460000C9460000C9460005A
S11300500C9460000C94F3000C9460000C94600009
S11300600C9460000C946000B401BB01C201C9018E
S1130070D001D701DE01E50121022C023A02480237
S11300805602640272027B02A502AB02B102B702FD
S1130090BD02C802D302DE02E902F40211241FBE2B
S11300A0CFEFD8E0DEBFCDBF21E0A0E0B1E001C0DA
S11300B01D92A530B207E1F70E9485000C9450040C
S11300C00C940000F89481E00E94170286E00E94DC
S11300D0170280E00E9417026FEF80E094E00E9414
S11300E0EC0120E034E040E061E085E00E9497020A
S11300F020E034E040E061E085E00E94850364E0B4
S113010083E00E941E01789408950E946200809109
S113011001018F5F80930101809104012BEA829F8A
S1130120812D11248695869590E090938900809383
S1130130880080910301829F812D112486958695E4
S11301408093B30080910101811104C08BB180615F
S11301508BB9DDCF909102018913D9CF8BB18F7EFA
S11301608BB9D5CF1F920F920FB60F9211248F9394
S1130170EF93FF9380910001813069F018F0823091
S1130180B1F01FC081E080930001ECE7F0E08081D2
S1130190887F808316C082E080930001ECE7F0E062
S11301A08081887F80838081866080830AC01092EA
S11301B00001ECE7F0E08081887F808380818160AA
S11301C08083EAE7F0E08081806480838FEF86BDDE
S11301D085B3816085BBFF91EF918F910F900FBE26
S11301E00F901F9018951F920F920FB60F92112423
S11301F08F93EF93FF9380910001813049F018F0C1
S1130200823059F00EC0809179008093040109C0B6
S1130210809179008093030104C0809179008093D8
S11302200201EAE7F0E0808180618083FF91EF9131
S11302308F910F900FBE0F901F901895813099F4F5
S1130240623049F0633059F0613009F0C4C08FEF77
S113025084B915B808958FEF87B918B808958FEF4A
S11302608AB91BB808958130C1F56230D1F028F401
S1130270662349F0613071F00895643001F1C0F0F3
S1130280653021F1089584B1816084B985B18E7F90
S113029085B9089584B1826084B985B18D7F85B9AB
S11302A0089584B1846084B985B18B7F85B908953C
S11302B084B1886084B985B1877F85B9089584B194
S11302C0806184B985B18F7E85B9089584B18062D7
S11302D084B985B18F7D85B908958230C1F56230C6
S11302E0D1F028F4662349F0613071F00895643048
S11302F001F1C0F0653021F1089587B1816087B9BB
S113030088B18E7F88B9089587B1826087B988B132
S11303108D7F88B9089587B1846087B988B18B7F50
S113032088B9089587B1886087B988B1877F88B90B
S1130330089587B1806187B988B18F7E88B908959F
S113034087B1806287B988B18F7D88B90895833079
S113035009F041C0862F90E088309105E0F5FC015A
S1130360EC5CFF4F0C944A048AB181608AB98BB16A
S11303708E7F8BB908958AB182608AB98BB18D7FE3
S11303808BB908958AB184608AB98BB18B7F8BB99C
S113039008958AB188608AB98BB1877F8BB9089533
S11303A08AB180618AB98BB18F7E8BB908958AB185
S11303B080628AB98BB18F7D8BB908958AB18064CC
S11303C08AB98BB18F7B8BB908958AB180688AB959
S11303D08BB18F778BB9089580349105B1F028F4EF
S11303E0009759F0089769F01BC0811521E0920726
S11303F081F08115944089F013C085B5816085BD75
S11304000FC085B5826085BD0BC085B5836085BD91
S113041007C085B5846085BD03C085B5856085BD8D
S113042066BDEEE6F0E0808181608083089590E00F
S11304308830910508F067C0FC01E45CFF4F0C9420
S11304404A04EEE7F0E0808181608083ECE7F0E02D
S11304508081887F808357C0ECE7F0E08081887FCB
S11304608083808181608083EEE7F0E08081826018
S1130470808349C0ECE7F0E08081887F80838081BD
S113048082608083EEE7F0E08081846080833BC0FB
S1130490ECE7F0E08081887F8083808183608083C3
S11304A0EEE7F0E08081886080832DC0ECE7F0E027
S11304B08081887F8083808184608083EEE7F0E0A0
S11304C08081806180831FC0ECE7F0E08081887FB9
S11304D08083808185608083EEE7F0E080818062A4
S11304E0808311C0ECE7F0E08081887F8083808185
S11304F08660808308C0ECE7F0E08081887F808399
S1130500808187608083ECE7F0E080818062808373
S1130510808180648083EAE7F0E080818860808362
S113052080818760808380818068808308950F93B1
S11305301F93D901082F10E00A30110508F05EC09E
S1130540F801EC5BFF4F0C944A04E0E8F0E0908182
S11305509160908353C0E0E8F0E0908192609083D2
S11305604DC0E0E8F0E090819360908347C0E1E8FB
S1130570F0E090819061908341C0E1E8F0E09081E7
S113058090619083E0E8F0E090819860908336C0B9
S1130590E1E8F0E0908198609083E0E8F0E09081F9
S11305A0916090832BC0E1E8F0E0908198609083A3
S11305B0E0E8F0E090819260908320C0E1E8F0E010
S11305C0908198609083E0E8F0E09081936090835C
S11305D015C0E1E8F0E0908198619083E0E8F0E0F4
S11305E09081926090830AC0E1E8F0E09081986184
S11305F09083E0E8F0E090819360908351E02BEFEA
S1130600280F223008F050E031E0873009F030E064
S113061091E0883009F090E021E0893009F020E091
S1130620352B932B11F42223D1F1442319F04130BB
S1130630E1F035C0662341F0613059F4E0E8F0E0C0
S113064080818068808305C0E0E8F0E08081806C70
S1130650808384B1826084B985B18D7F85B9EFE6EA
S1130660F0E08081826080831AC0662341F06130AB
S113067059F4E0E8F0E080818062808305C0E0E81E
S1130680F0E080818063808384B1846084B985B123
S11306908B7F85B9EFE6F0E0808184608083A034AD
S11306A0B105D1F028F4109759F0189779F025C0C6
S11306B0A11581E0B807B1F0A115B440C9F01DC07F
S11306C0E1E8F0E080818160808317C0E1E8F0E038
S11306D080818260808311C0E1E8F0E080818360E2
S11306E080830BC0E1E8F0E080818460808305C0F2
S11306F0E1E8F0E0808185608083EFE6F0E08081CE
S1130700816080831F910F910895843079F018F4EB
S1130710882331F026C08530A1F08930C1F021C092
S1130720E0EBF0E09081916090831BC0E1EBF0E09E
S1130730908191609083E0EBF0E0908198609083E9
S113074010C0E0EBF0E09081936090830AC0E1EB8D
S1130750F0E0908198609083E0EBF0E0908193600A
S11307609083E1E07BEF780F723008F0E0E051E035
S1130770873009F050E091E0883009F090E071E0B2
S1130780893009F070E05E2B952B11F47723D1F1B9
S1130790442319F04130E1F035C0662341F0613063
S11307A059F4E0EBF0E080818068808305C0E0EBE1
S11307B0F0E08081806C808384B1886084B985B1E5
S11307C0877F85B9E0E7F0E08081826080831AC08A
S11307D0662341F0613059F4E0E8F0E08081806202
S11307E0808305C0E0E8F0E08081806380838AB183
S11307F088608AB98BB1877F8BB9E0E7F0E08081AC
S1130800846080832034310541F148F42830310577
S1130810C1F020323105D9F0232BB1F50CC02115DC
S113082081E0380731F1211584E0380741F120389F
S1130830310551F518C0E1EBF0E0808181608083DF
S113084023C0E1EBF0E08081826080831DC0E1EB96
S1130850F0E080818360808317C0E1EBF0E0808169
S11308608460808311C0E1EBF0E080818560808347
S11308700BC0E1EBF0E080818660808305C0E1EB92
S1130880F0E0808187608083E0E7F0E08081816030
S113089080830895EE0FFF1F0590F491E02D0994D5
S10708A0F894FFCFF6
S9030000FC
