S0110000506C616E74696C6C612E7372656372
S11300000C9446000C9458000C9458000C9458001E
S11300100C9458000C9458000C9458000C945800FC
S11300200C9458000C9458000C9458000C945800EC
S11300300C9458000C9458000C9458000C945800DC
S11300400C947C000C9458000C9458000C945800A8
S11300500C9458000C9496000C9458000C9458007E
S11300600C9458000C945800E400EA00F5000001D8
S11300700B011601210127014E0154015A016001AF
S1130080660171017C01870192019D0111241FBE4B
S1130090CFEFD8E0DEBFCDBF21E0A0E0B1E001C0EA
S11300A01D92A130B207E1F70E946C000C94340257
S11300B00C940000F89486E00E94DA006FEF80E070
S11300C094E00E94AF0020E034E040E061E085E08D
S11300D00E944001789408950E945A008091000182
S11300E09BEA899F812D11248695869590E09093B3
S11300F0890080938800F2CF1F920F920FB60F925F
S113010011248F93EF93FF93EAE7F0E080818064FA
S113011080838FEF86BD85B3816085BBFF91EF91AE
S11301208F910F900FBE0F901F9018951F920F92F2
S11301300FB60F9211248F93EF93FF938091790060
S113014080930001EAE7F0E0808180618083FF9181
S1130150EF918F910F900FBE0F901F9018958034E0
S11301609105B1F028F4009759F0089769F01BC085
S1130170811521E0920781F08115944089F013C024
S113018085B5816085BD0FC085B5826085BD0BC016
S113019085B5836085BD07C085B5846085BD03C012
S11301A085B5856085BD66BDEEE6F0E08081816041
S11301B08083089590E08830910508F04DC0FC01DB
S11301C0EC5CFF4F0C942E02EEE7F0E0808181603E
S11301D0808342C0ECE7F0E0808181608083EEE7B9
S11301E0F0E080818260808337C0ECE7F0E08081BA
S11301F082608083EEE7F0E08081846080832CC09D
S1130200ECE7F0E0808183608083EEE7F0E08081BA
S11302108860808321C0ECE7F0E080818460808383
S1130220EEE7F0E080818061808316C0ECE7F0E0C7
S1130230808185608083EEE7F0E080818062808346
S11302400BC0ECE7F0E080818660808305C0ECE7BA
S1130250F0E0808187608083ECE7F0E08081806259
S11302608083808180648083EAE7F0E08081886015
S11302708083808187608083808180688083089503
S11302800F931F93D901082F10E00A30110508F0CD
S11302905EC0F801E45CFF4F0C942E02E0E8F0E04D
S11302A090819160908353C0E0E8F0E09081926087
S11302B090834DC0E0E8F0E090819360908347C064
S11302C0E1E8F0E090819061908341C0E1E8F0E0E2
S11302D0908190619083E0E8F0E090819860908351
S11302E036C0E1E8F0E0908198609083E0E8F0E0C7
S11302F09081916090832BC0E1E8F0E09081986058
S11303009083E0E8F0E090819260908320C0E1E87F
S1130310F0E0908198609083E0E8F0E09081936051
S1130320908315C0E1E8F0E0908198619083E0E863
S1130330F0E09081926090830AC0E1E8F0E090815F
S113034098619083E0E8F0E090819360908351E0BD
S11303502BEF280F223008F050E031E0873009F00D
S113036030E091E0883009F090E021E0893009F034
S113037020E0352B932B11F42223D1F1442319F0DF
S11303804130E1F035C0662341F0613059F4E0E8D2
S1130390F0E080818068808305C0E0E8F0E080813F
S11303A0806C808384B1826084B985B18D7F85B986
S11303B0EFE6F0E08081826080831AC0662341F01A
S11303C0613059F4E0E8F0E080818062808305C008
S11303D0E0E8F0E080818063808384B1846084B944
S11303E085B18B7F85B9EFE6F0E0808184608083FE
S11303F0A034B105D1F028F4109759F0189779F08A
S113040025C0A11581E0B807B1F0A115B440C9F029
S11304101DC0E1E8F0E080818160808317C0E1E8DD
S1130420F0E080818260808311C0E1E8F0E08081A7
S1130430836080830BC0E1E8F0E080818460808386
S113044005C0E1E8F0E0808185608083EFE6F0E0BC
S11304508081816080831F910F910895EE0FFF1FAB
S10F04600590F491E02D0994F894FFCF6E
S9030000FC
